:020000040800F2
:1000000000C00020754D0008594D00085B4D0008E8
:100010005D4D00085F4D0008614D000800000000C4
:10002000000000000000000000000000634D000818
:10003000654D000800000000674D0008694D00088C
:10004000BD4D0008BD4D0008BD4D0008BD4D000868
:10005000BD4D0008BD4D0008BD4D0008BD4D000858
:10006000BD4D0008BD4D0008BD4D000869450008A4
:10007000BD4D0008BD4D0008BD4D0008BD4D000838
:10008000BD4D0008BD4D0008BD4D0008BD4D000828
:10009000BD4D0008BD4D0008BD4D0008BD4D000818
:1000A000BD4D0008BD4D0008BD4D0008BD4D000808
:1000B000BD4D0008BD4D0008BD4D0008BD4D0008F8
:1000C000BD4D0008BD4D0008BD4D0008BD4D0008E8
:1000D000BD4D0008BD4D0008BD4D0008BD4D0008D8
:1000E000BD4D0008BD4D0008BD4D0008BD4D0008C8
:1000F000BD4D0008BD4D0008BD4D0008BD4D0008B8
:10010000BD4D0008BD4D0008BD4D0008BD4D0008A7
:10011000BD4D0008BD4D0008BD4D0008BD4D000897
:10012000BD4D0008BD4D0008BD4D0008BD4D000887
:1001300000000000000000000000000000000000BF
:1001400000000000000000000000000000000000AF
:10015000000000000000000000000000000000009F
:10016000000000000000000000000000000000008F
:10017000000000000000000000000000000000007F
:10018000000000000000000000000000000000006F
:10019000000000000000000000000000000000005F
:1001A000000000000000000000000000000000004F
:1001B000000000000000000000000000000000003F
:1001C000000000000000000000000000000000002F
:1001D000000000000000000000000000000000001F
:0401E0005FF8E0F1F3
:1001E8000348044B834202D0034B03B118477047BE
:1001F8008C0000208C000020000000000548064903
:10020800091A891001EBD171491002D0034B03B1CF
:10021800184770478C0000208C0000200000000068
:1002280010B5064C237843B9FFF7DAFF044B13B136
:100238000448AFF300800123237010BD8C00002018
:1002480000000000C04D000808B5044B1BB104496C
:100258000448AFF30080BDE80840CFE70000000085
:1002680090000020C04D000870B50D4E0D4D761B56
:10027800B61006D00024013455F8043B9847A6422E
:10028800F9D1094E094D04F097FD761BB61006D03A
:100298000024013455F8043B9847A642F9D170BDB3
:1002A800804E0008804E0008844E0008804E0008EA
:1002B800F0B4860743D0541E002A3ED0CAB2034683
:1002C80002E014F1FF3438D303F8012B9D07F8D16D
:1002D800032C2BD9CDB245EA05250F2C45EA054557
:1002E80016D9A4F110073F0903F1200606EB0716FB
:1002F80003F1100242E9045542E902551032B242B4
:10030800F8D104F00F040137032C03EB07130DD9C0
:100318001E462246043A032A46F8045BFAD8221FEE
:1003280022F003020432134404F003042CB1C9B2CE
:100338001C4403F8011B9C42FBD1F0BC70471446D7
:100348000346C5E70CB470B56FF000459CB020AC0F
:1003580054F8042B094E02910691234602A90194F0
:100368000795CDE9045600F037F90022029B1A7070
:100378001CB0BDE8704002B0704700BF0802FFFF24
:100388000EB4034630B56FF000449CB01FA951F875
:10039800042B0A480A4D0293069301910B46006804
:1003A80002A90794CDE9044500F016F90022029B42
:1003B8001A701CB0BDE8304003B070470000002040
:1003C8000802FFFF20F0030110F00300C0F1000055
:1003D80051F8043B00F1040C4FEACC0C6FF000021A
:1003E8001CBF22FA0CF213434FF0010C4CEA0C2C00
:1003F8004CEA0C4CA3EB0C0222EA030212EACC12E0
:1004080004BF51F8043B0430F4D0C2F1000102EA01
:100418000102B2FA82F2C2F11F0200EBD200704769
:100428002DE9F0478E6880469E420C461D461746C9
:10043800086828D8B1F80CC01CF4906F31D0D1E905
:10044800041606EB460606EBD676A0EB0109013347
:1004580076104B44B342324684BF1E4632461CF4E3
:10046800806F20D01146404600F03CFD824670B3B4
:100478004A46216900F00AFCA38923F4906343F0FB
:100488008003A38114E01E462A46394600F074FC16
:100498000020A2682368961B2B44A6602360BDE851
:1004A800F0873546F0E7404600F080FD824650B1BF
:1004B800A6EB09030AEB09006661C4F810A02060E6
:1004C800A3602E46E0E72169404600F0B7FC0C2304
:1004D800C8F80030A3894FF0FF3043F04003A381F0
:1004E800DDE700BF2DE9F04F936883B09046002BFD
:1004F8006CD0176882460C46086808378D6842E059
:10050800A38913F4906F2DD0D4E9041505EB4505A4
:10051800A0EB010B05EBD575701C6D105844A84273
:100528002A4684BF05462A465B0536D511465046FD
:1005380000F0D8FC00283AD05A462169019000F012
:10054800A5FBA289019B22F4906242F08002A2815D
:10055800A5EB0B0203EB0B006561B346354623613F
:100568002060A2605A46494600F006FCD8F80830D8
:10057800A2682068551B58449E1BA5602060C8F8D7
:1005880008601EB3083757E90296AB46002EF9D02B
:10059800AE42B5D23546B346E4E7504600F006FD14
:1005A80003460028D4D12169504600F047FC0C23AB
:1005B80000224FF0FF30CAF80030A38943F040030F
:1005C800A381C8E9012203B0BDE8F08F0020C8F874
:1005D800040003B0BDE8F08F2DE9F04F8846898903
:1005E8009FB00D061446029004D5D8F81020002AB2
:1005F80000F017810020202130220593237801265E
:100608000B908DF83110914D8DF83220002B00F0B1
:100618009680252BA24603D119E0252B00F0C28035
:100628001AF8013F002BF8D1BAEB040B00F08780D1
:1006380022465B4641460298FFF7F2FE01307ED023
:100648000B9B9AF800205B440B93002A77D0002379
:100658004FF0FF320AF1010A0693CDE908338DF80D
:100668005B301C93079206E0CA46069B401B06FABD
:1006780000F018430690D146052219F8011B2846B8
:1006880000F0BEFACB460028EED1069BD80644BF40
:1006980020228DF85B20190748BF2B229AF80010FA
:1006A80048BF8DF85B202A2953D0A1F13003092BCC
:1006B80000F2AC80099A02E0CA4609F1010999F8EA
:1006C800001002EB820203EB4202A1F13003092B76
:1006D800CB46F1D90AF1020909922E2946D05C4C81
:1006E8000322204600F08CFA002858D04021001B35
:1006F800069A01FA00F00243069209F1010499F8FA
:1007080000300622194653488DF8303000F078FA48
:10071800002859D0504B002B49D005AB00934246D6
:100728004E4B06A90298AFF3008007467A1C06D004
:100738000B9B3B440B932378002B7FF46AAFB8F8EC
:100748000C305B064CBF4FF0FF300B981FB0BDE874
:10075800F08F059A11680432002905922EDB099161
:100768009AF801100AF102092E29B8D19BF8011054
:100778002A2933D1059B0BF102001A680433002A99
:10078800079205939BF802100BF1030940DB304CEC
:1007980083460322204600F033FA0028A6D14C46AF
:1007A800D946ACE7BAEB040B3FF451AF40E7059BE1
:1007B800073323F0070308330593B9E7494243F0A9
:1007C800020309910693CBE705AB00934246234BFE
:1007D80006A9029800F0D2F80746A7E70022A1F17F
:1007E80030000928079201D917E0D94699F8011075
:1007F80002EB820200EB4202A1F13000092809F164
:10080800010BF2D909F10209079268E7D34664E7B8
:100818004FF0FF328346079261E7CB4609F10109A1
:100828005DE74021039300F05DFB039BC8F80000DF
:10083800C8F8100018B14022C8F81420DAE60C23D2
:10084800029A4FF0FF30136080E700BF444E000863
:100858004C4E0008504E0008000000002904000813
:100868002DE9F0470C460969A56891468D42B8BF45
:100878000D46156094F8431006461F46DDF82080A3
:1008880011B16A1CC9F80020236899065FD5D9F808
:1008980000200232C9F80020236813F0060F194619
:1008A8001DD1E1688A1A002AD8BF194617DD00252C
:1008B80004F1190A05E0E368D9F800209B1AAB4255
:1008C8000CDD0123524639463046C047013005F158
:1008D8000105F0D14FF0FF30BDE8F087216894F8AA
:1008E8004330003318BF01238A060AD53021E218A5
:1008F80082F8431094F845105A1C224482F8431099
:10090800023304F1430239463046C0470130E1D092
:10091800D4E902202368D9F8005003F00603042B19
:1009280021691AD08A421FDD4FF00009521A9144FA
:1009380000251A3401E04D4516D0012322463946D8
:100948003046C047013005F10105F4D1C2E713F084
:10095800060F0CD1D9F80020A3E7401B8A4220EAF1
:10096800E079E3DC0028E3DC0020BDE8F08794F8B8
:100978004330003318BF0123C3E700BF2DE9F0431C
:100988000C46097E85B06E2906461746984604F13E
:10099800430C0C9D4AD00FD8632900F0FE8000F26A
:1009A800BE8000294ED0582940F0E08084F84510D8
:1009B8002268DFF844E212E0732900F0C5807AD893
:1009C8006F2900F0DA80702940F0D080206840F06C
:1009D800200222607823DFF824E284F845302B686F
:1009E800191D1B682960150602D4500648BF9BB222
:1009F800D10744BF42F020022260002B6CD1D4E919
:100A0800001284F84330002A21F020032360A260FA
:100A18007DDB21F0240121601021002A78D1654670
:100A280008294ED0ACEB050323610EE02B68226841
:100A3800181D6169286015061B6802D4500600F16C
:100A4800C6801960002365462361CDF800803B46C7
:100A580003AA21463046FFF703FF013020D02A467B
:100A6800236939463046C047013019D022680398B7
:100A78009207E36819D51A1A002A16DD002504F131
:100A8800190904E0E36803981A1AAA420DDD012344
:100A98004A4639463046C047013005F10105F1D1D3
:100AA8004FF0FF3005B0BDE8F0839842B8BF184654
:100AB80005B0BDE8F08375295FD0782956D1226842
:100AC80088E72368DB07ADD5626823699A42A9DC09
:100AD8003023013D2B70A5E71021002284F8432024
:100AE8006268002AA2602CDB206820F004002060E5
:100AF800002B92D06546B3FBF1F201FB12331EF8CE
:100B08000300134605F8010D002AF4D188E71021E7
:100B18009EF8003004F1420584F8423080E76429E9
:100B280001D0692922D120682B68010603F104024B
:100B380045D51B682A60002B4BDB0A21DFF8B8E09B
:100B4800CEE7002BD6D1E3E72B686268191D296030
:100B58001D680021284600F053F8002845D0401BA6
:100B680060602061002384F843306EE7012384F835
:100B78004210236104F14205F4E720682B6810F065
:100B8800800F03F1040213D01B682A606F290CBF81
:100B980008210A21DFF860E09FE701222B68191D70
:100BA8001B68296004F1420584F842302261D9E7C4
:100BB800400653BF1B682A601B882A60E6E7410687
:100BC80053BF1B682A60B3F900302A60B3E7198065
:100BD80038E72D2162685B42002A84F84310A2603E
:100BE80005DB0A21DFF810E07FE76068B9E7DFF886
:100BF80008E00A217EE700BF584E00086C4E000846
:100C0800830770B4CDB23DD0541E0AB30378AB420B
:100C18001FD0431C05E014F1FF3419D30278AA420F
:100C280017D013F0030F184603F10103F3D1032C77
:100C380011D84CB30378AB420BD00444431C02E0F8
:100C48000278AA4205D09C42184603F10103F7D165
:100C5800002070BC704706460A0292B22A4342EA54
:100C68000242336830465340A3F1013121EA0303BD
:100C780013F0803F06F10406DCD1043C032C304617
:100C8800EFD8D6E71446D2E72046E2E7844641EAA1
:100C9800000313F0030349D1403A23D30B680360E0
:100CA8004B6843608B688360CB68C3600B690361E2
:100CB8004B6943618B698361CB69C3610B6A0362CA
:100CC8004B6A43628B6A8362CB6AC3620B6B0363B2
:100CD8004B6B43638B6B8363CB6BC3634030403197
:100CE800403ADBD230320BD30B6803604B68436069
:100CF8008B688360CB68C36010301031103AF3D230
:100D08000C3205D351F8043B40F8043B043AF9D2BD
:100D1800043208D0D2071CBF11F8013B00F8013B90
:100D280001D30B8803806046704700BF082A13D39D
:100D38008B07B1D010F00303AED0C3F10403D21A6D
:100D4800DB071CBF11F8013B00F8013BA4D331F8C5
:100D5800023B20F8023B9FE7043AD9D3013A11F845
:100D6800013B00F8013BF9D20B7803704B784370D4
:100D78008B788370604670478842F0B40DD98B1821
:100D880083420AD9841832B1224613F8014D994298
:100D980002F8014DF9D1F0BC70470F2A48D940EA52
:100DA80001039B0746D1A2F110031B0901F120079B
:100DB80007EB031701F1100400F1100554F8106C4B
:100DC800103445F8106C54F81C6C103545F81C6C40
:100DD80054F8186C45F8186C54F8146CBC4245F873
:100DE800146CEBD1013302F00F051B01032D1944DC
:100DF800034421D90F462C461E1F57F804CB043C48
:100E0800032C46F804CFF8D82C1F24F0030404342C
:100E18002344214402F00302002ABCD0013B0A44C7
:100E280011F8014B914203F8014FF9D1F0BC70471A
:100E38000346F1E70346F1E72A46EDE7002934D0F7
:100E480038B551F8043C0C1F002BB8BFE418054610
:100E580000F0E4F8224B1A682AB1A2420DD92168A1
:100E68006018824235D0626028461C60BDE8384070
:100E780000F0D6B8A34203D81A465368002BF9D11C
:100E880011685018A04218D010D821686018834201
:100E980003BFD3E900030918C4E900136360546071
:100EA8002846BDE8384000F0BBB870470C232846F8
:100EB8002B60BDE8384000F0B3B8206801445018F2
:100EC80083421160ECD1D3E900030144C2E9001365
:100ED800E6E7D2E900020144C4E90012C4E700BF12
:100EE800A8000020F8B5CD1C25F0030508350C2D09
:100EF80038BF0C25002D06463ADBA94238D82A4FC0
:100F080000F08CF83A6852B113685B1B04D433E0E4
:100F180023685B1B25D522465468002CF8D17968D4
:100F280000293BD02946304600F066F8431C2AD0F9
:100F3800C41C24F00304A04205D0211A304600F056
:100F48005BF801301FD02560304600F069F804F1E5
:100F58000B0020F00700231DC31A01D05A42E250AB
:100F6800F8BD0B2B0BD8A24215D063685360EBE792
:100F78000C2300203360F8BD0B2B0BD914462360DB
:100F88001C442560E0E70C233046336000F048F845
:100F98000020F8BD54683C601446D5E7304600F0A0
:100FA8002BF87860BEE700BFA8000020E1B1F8B5D3
:100FB8001446E2B106460D4600F034F8A04202D3CA
:100FC8002F463846F8BD21463046FFF78BFF0746C7
:100FD8000028F6D022462946FFF758FE3046294613
:100FE800FFF72CFF3846F8BD1146FFF77BBFFFF728
:100FF80025FF2746E5E700BF38B50023064C054620
:101008000846236000F016F8431C00D038BD23685A
:10101800002BFBD02B6038BD20040020704700BF98
:10102800704700BF51F8043C181F002BBCBF0B5879
:10103800C0187047044A05491368002B08BF0B46BF
:101048001844106018467047B0000020280400209B
:1010580081F0004102E000BF83F0004330B54FEA61
:1010680041044FEA430594EA050F08BF90EA020FCE
:101078001FBF54EA000C55EA020C7FEA645C7FEA61
:10108800655C00F0E2804FEA5454D4EB5555B8BF84
:101098006D420CDD2C4480EA020281EA030382EAF5
:1010A800000083EA010180EA020281EA0303362D87
:1010B80088BF30BD11F0004F4FEA01314FF4801C5A
:1010C8004CEA113102D0404261EB410113F0004F6C
:1010D8004FEA03334CEA133302D0524263EB430323
:1010E80094EA050F00F0A780A4F10104D5F1200EC1
:1010F8000DDB02FA0EFC22FA05F2801841F100011C
:1011080003FA0EF2801843FA05F359410EE0A5F1EF
:1011180020050EF1200E012A03FA0EFC28BF4CF020
:10112800020C43FA05F3C01851EBE37101F00045D6
:1011380007D54FF0000EDCF1000C7EEB00006EEBE3
:101148000101B1F5801F1BD3B1F5001F0CD349086D
:101158005FEA30004FEA3C0C04F101044FEA4452C4
:1011680012F5800F80F09A80BCF1004F08BF5FEA4B
:10117800500C50F1000041EB045141EA050130BD2B
:101188005FEA4C0C404141EB010111F4801FA4F1CE
:101198000104E9D191F0000F04BF01460020B1FA23
:1011A80081F308BF2033A3F10B03B3F120020CDA5B
:1011B8000C3208DD02F1140CC2F10C0201FA0CF039
:1011C80021FA02F10CE002F11402D8BFC2F1200C9E
:1011D80001FA02F120FA0CFCDCBF41EA0C01904054
:1011E800E41AA2BF01EB0451294330BD6FEA04049D
:1011F8001F3C1CDA0C340EDC04F11404C4F1200288
:1012080020FA04F001FA02F340EA030021FA04F399
:1012180045EA030130BDC4F10C04C4F1200220FAF0
:1012280002F001FA04F340EA0300294630BD21FA2E
:1012380004F0294630BD94F0000F83F4801306BFF4
:1012480081F480110134013D4EE77FEA645C18BFE8
:101258007FEA655C29D094EA050F08BF90EA020F7F
:1012680005D054EA000C04BF1946104630BD91EA77
:10127800030F1EBF0021002030BD5FEA545C05D17A
:101288004000494128BF41F0004130BD14F58004B9
:101298003CBF01F5801130BD01F0004545F0FE412D
:1012A80041F470014FF0000030BD7FEA645C1ABF62
:1012B800194610467FEA655C1CBF0B46024650EA99
:1012C800013406BF52EA033591EA030F41F40021C5
:1012D80030BD00BF90F0000F04BF0021704730B54B
:1012E8004FF4806404F132044FF000054FF0000120
:1012F80050E700BF90F0000F04BF0021704730B5E1
:101308004FF4806404F1320410F0004548BF4042B5
:101318004FF000013EE700BF42004FEAE2014FEA0A
:1013280031014FEA02701FBF12F07F4393F07F4FE5
:1013380081F06051704732F07F4208BF704793F0E8
:101348007F4F04BF41F40021704730B54FF46074FB
:1013580001F0004521F000411CE700BF50EA0102FE
:1013680008BF704730B54FF000050AE050EA0102A7
:1013780008BF704730B511F0004502D5404261EB17
:1013880041014FF4806404F132045FEA915C3FF458
:10139800D8AE4FF003025FEADC0C18BF03325FEAF5
:1013A800DC0C18BF033202EBDC02C2F1200300FAA6
:1013B80003FC20FA02F001FA03FE40EA0E0021FACB
:1013C80002F11444BDE600BF70B54FF0FF0C4CF4B9
:1013D800E06C1CEA11541DBF1CEA135594EA0C0F6B
:1013E80095EA0C0F00F0DEF82C4481EA030621EAA6
:1013F8004C5123EA4C5350EA013518BF52EA0335E1
:1014080041F4801143F4801338D0A0FB02CE4FF092
:101418000005E1FB02E506F00042E0FB03E54FF0C2
:101428000006E1FB03569CF0000F18BF4EF0010EBA
:10143800A4F1FF04B6F5007F64F5407404D25FEAB6
:101448004E0E6D4146EB060642EAC62141EA555169
:101458004FEAC52040EA5E504FEACE2EB4F1FD0CAB
:1014680088BFBCF5E06F1ED8BEF1004F08BF5FEA29
:10147800500E50F1000041EB045170BD06F00046DB
:1014880046EA010140EA020081EA0301B4EB5C0488
:10149800C2BFD4EB0C0541EA045170BD41F4801180
:1014A8004FF0000E013C00F3AB8014F1360FDEBFA5
:1014B800002001F0004170BDC4F10004203C35DA81
:1014C8000C341BDC04F11404C4F1200500FA05F304
:1014D80020FA04F001FA05F240EA020001F00042A5
:1014E80021F0004110EBD37021FA04F642EB06011B
:1014F8005EEA430E08BF20EAD37070BDC4F10C0445
:10150800C4F1200500FA04F320FA05F001FA04F208
:1015180040EA020001F0004110EBD37041F10001F4
:101528005EEA430E08BF20EAD37070BDC4F12005FF
:1015380000FA05F24EEA020E20FA04F301FA05F267
:1015480043EA020321FA04F001F0004121FA04F20F
:1015580020EA020000EBD3705EEA430E08BF20EADF
:10156800D37070BD94F0000F0FD101F00046400019
:1015780041EB010111F4801F08BF013CF7D041EA9B
:10158800060195F0000F18BF704703F0004652009F
:1015980043EB030313F4801F08BF013DF7D043EA70
:1015A8000603704794EA0C0F0CEA135518BF95EA26
:1015B8000C0F0CD050EA410618BF52EA4306D1D1AD
:1015C80081EA030101F000414FF0000070BD50EACC
:1015D800410606BF1046194652EA430619D094EA56
:1015E8000C0F02D150EA013613D195EA0C0F05D140
:1015F80052EA03361CBF104619460AD181EA030194
:1016080001F0004141F0FE4141F470014FF000004B
:1016180070BD41F0FE4141F4780170BD70B54FF0E6
:10162800FF0C4CF4E06C1CEA11541DBF1CEA135566
:1016380094EA0C0F95EA0C0F00F0A7F8A4EB050448
:1016480081EA030E52EA03354FEA013100F088803F
:101658004FEA03334FF0805545EA131343EA126308
:101668004FEA022245EA111545EA10654FEA0026BD
:101678000EF000419D4208BF964244F1FD0404F576
:10168800407402D25B084FEA3202B61A65EB0305D2
:101698005B084FEA32024FF480104FF4002CB6EB8F
:1016A800020E75EB030E22BFB61A754640EA0C000F
:1016B8005B084FEA3202B6EB020E75EB030E22BF4F
:1016C800B61A754640EA5C005B084FEA3202B6EB90
:1016D800020E75EB030E22BFB61A754640EA9C004F
:1016E8005B084FEA3202B6EB020E75EB030E22BF1F
:1016F800B61A754640EADC0055EA060E18D04FEADD
:10170800051545EA16754FEA06164FEAC30343EA7C
:1017180052734FEAC2025FEA1C1CC0D111F4801F49
:101728000BD141EA00014FF000004FF0004CB6E742
:1017380011F4801F04BF01430020B4F1FD0C88BFE1
:10174800BCF5E06F3FF6AFAEB5EB030C04BFB6EBEC
:10175800020C5FEA500C50F1000041EB045170BDDF
:101768000EF0004E4EEA113114EB5C04C2BFD4EB0C
:101778000C0541EA045170BD41F480114FF0000E90
:10178800013C90E645EA060E8DE60CEA135594EA0C
:101798000C0F08BF95EA0C0F3FF43BAF94EA0C0F0F
:1017A8000AD150EA01347FF434AF95EA0C0F7FF484
:1017B80025AF104619462CE795EA0C0F06D152EAD8
:1017C80003353FF4FDAE1046194622E750EA4106BC
:1017D80018BF52EA43067FF4C5AE50EA41047FF4CD
:1017E8000DAF52EA43057FF4EBAE12E74FF0FF3C32
:1017F80006E000BF4FF0010C02E000BF4FF0010C03
:101808004DF804CD4FEA410C7FEA6C5C4FEA430C7B
:1018180018BF7FEA6C5C1BD001B050EA410C0CBFCA
:1018280052EA430C91EA030F02BF90EA020F00202C
:10183800704710F1000F91EA030F58BF994208BF93
:1018480090422CBFD8176FEAE37040F00100704750
:101858004FEA410C7FEA6C5C02D150EA013C07D1A7
:101868004FEA430C7FEA6C5CD6D152EA033CD3D0F2
:101878005DF8040B704700BF8446104662468C46EC
:101888001946634600E000BF01B5FFF7B7FF00281F
:1018980048BF10F1000F01BD4DF808EDFFF7F4FF48
:1018A8000CBF012000205DF808FB00BF4DF808EDD3
:1018B800FFF7EAFF34BF012000205DF808FB00BFF6
:1018C8004DF808EDFFF7E0FF94BF012000205DF818
:1018D80008FB00BF4DF808EDFFF7CEFF94BF0120CD
:1018E80000205DF808FB00BF4DF808EDFFF7C4FFC6
:1018F80034BF012000205DF808FB00BF4FEA410219
:1019080012F5001215D211D56FF47873B3EB625249
:1019180012D94FEAC12343F0004343EA505311F070
:10192800004F23FA02F018BF404270474FF0000002
:10193800704750EA013005D111F0004008BF6FF040
:10194800004070474FF00000704700BF4FEA410267
:10195800B2F1E04324BFB3F5001CDCF1FE5C0DD905
:1019680001F0004C4FEAC0024CEA5070B2F1004F4F
:1019780040EB830008BF20F00100704711F0804F52
:1019880021D113F13872BCBF01F00040704741F417
:1019980080114FEA5252C2F11802C2F1200C10FA1B
:1019A8000CF320FA02F018BF40F001004FEAC123FF
:1019B8004FEAD32303FA0CFC40EA0C0023FA02F3A3
:1019C8004FEA4303CCE77FEA625307D150EA013379
:1019D8001EBF4FF0FE4040F44000704701F0004049
:1019E80040F0FE4040F40000704700BF80F0004027
:1019F80002E000BF81F0004142001FBF5FEA4103DF
:101A080092EA030F7FEA226C7FEA236C6AD04FEADE
:101A18001262D2EB1363C1BFD21841404840414023
:101A2800B8BF5B42192B88BF704710F0004F40F4D5
:101A3800000020F07F4018BF404211F0004F41F4F1
:101A4800000121F07F4118BF494292EA030F3FD0BD
:101A5800A2F1010241FA03FC10EB0C00C3F12003D0
:101A680001FA03F100F0004302D5494260EB40005F
:101A7800B0F5000F13D3B0F1807F06D340084FEACA
:101A8800310102F10102FE2A51D2B1F1004F40EBBF
:101A9800C25008BF20F0010040EA03007047490027
:101AA80040EB000010F4000FA2F10102EDD1B0FAF2
:101AB80080FCACF1080CB2EB0C0200FA0CF0AABFE7
:101AC80000EBC25052421843BCBFD0401843704785
:101AD80092F0000F81F4000106BF80F4000001328B
:101AE800013BB5E74FEA41037FEA226C18BF7FEA62
:101AF800236C21D092EA030F04D092F0000F08BFA4
:101B08000846704790EA010F1CBF0020704712F08A
:101B18007F4F04D1400028BF40F00040704712F1C9
:101B280000723CBF00F50000704700F0004343F02E
:101B3800FE4040F4000070477FEA226216BF084664
:101B48007FEA23630146420206BF5FEA412390EA27
:101B5800010F40F4800070474FF0000304E000BF1D
:101B680010F0004348BF40425FEA000C08BF7047CE
:101B780043F0964301464FF000001CE050EA010292
:101B880008BF70474FF000030AE000BF50EA0102A7
:101B980008BF704711F0004302D5404261EB410194
:101BA8005FEA010C02BF84460146002043F0B643B9
:101BB80008BFA3F18053A3F50003BCFA8CF2083ADE
:101BC800A3EBC25310DB01FA02FC634400FA02FCE7
:101BD800C2F12002BCF1004F20FA02F243EB0200EE
:101BE80008BF20F00100704702F1200201FA02FC50
:101BF800C2F1200250EA4C0021FA02F243EB020043
:101C080008BF20EADC7070474FF0FF0C1CEAD05286
:101C18001EBF1CEAD15392EA0C0F93EA0C0F6FD047
:101C28001A4480EA010C400218BF5FEA41211ED025
:101C38004FF0006343EA501043EA5111A0FB013111
:101C48000CF00040B1F5000F3EBF490041EAD371E6
:101C58005B0040EA010062F17F02FD2A1DD8B3F162
:101C6800004F40EBC25008BF20F00100704790F0D1
:101C7800000F0CF0004C08BF49024CEA502040EA23
:101C880051207F3AC2BFD2F1FF0340EAC2507047E9
:101C980040F400004FF00003013A5DDC12F1190F27
:101CA800DCBF00F000407047C2F10002410021FA99
:101CB80002F1C2F1200200FA02FC5FEA310040F1B1
:101CC800000053EA4C0308BF20EADC70704792F02A
:101CD800000F00F0004C02BF400010F4000F013A62
:101CE800F9D040EA0C0093F0000F01F0004C02BF5D
:101CF800490011F4000F013BF9D041EA0C018FE7CC
:101D08000CEAD15392EA0C0F18BF93EA0C0F0AD0D1
:101D180030F0004C18BF31F0004CD8D180EA0100F7
:101D280000F00040704790F0000F17BF90F0004F90
:101D3800084691F0000F91F0004F14D092EA0C0F72
:101D480001D142020FD193EA0C0F03D14B0218BF05
:101D5800084608D180EA010000F0004040F0FE404B
:101D680040F40000704740F0FE4040F440007047E7
:101D78004FF0FF0C1CEAD0521EBF1CEAD15392EA66
:101D88000C0F93EA0C0F69D0A2EB030280EA010C56
:101D980049024FEA402037D04FF0805343EA1111EF
:101DA80043EA10130CF000408B4238BF5B0042F14D
:101DB8007D024FF4000C8B4224BF5B1A40EA0C00F2
:101DC800B3EB510F24BFA3EB510340EA5C00B3EB24
:101DD800910F24BFA3EB910340EA9C00B3EBD10F12
:101DE80024BFA3EBD10340EADC001B0118BF5FEA64
:101DF8001C1CE0D1FD2A3FF650AF8B4240EBC2508D
:101E080008BF20F0010070470CF0004C4CEA50204D
:101E18007F32C2BFD2F1FF0340EAC250704740F49C
:101E280000004FF00003013A37E792F0000F00F08E
:101E3800004C02BF400010F4000F013AF9D040EA0C
:101E48000C0093F0000F01F0004C02BF490011F4A0
:101E5800000F013BF9D041EA0C0195E70CEAD15398
:101E680092EA0C0F08D142027FF47DAF93EA0C0F7F
:101E78007FF470AF084676E793EA0C0F04D14B0263
:101E88003FF44CAF08466EE730F0004C18BF31F015
:101E9800004CCAD130F000427FF45CAF31F000430F
:101EA8007FF43CAF5FE700BF4FF0FF3C06E000BFA8
:101EB8004FF0010C02E000BF4FF0010C4DF804CDCB
:101EC8004FEA40024FEA41037FEA226C18BF7FEADB
:101ED800236C11D001B052EA530C18BF90EA010FDD
:101EE80058BFB2EB030088BFC81738BF6FEAE1706C
:101EF80018BF40F0010070477FEA226C02D15FEA08
:101F0800402C05D17FEA236CE4D15FEA412CE1D073
:101F18005DF8040B704700BF844608466146FFE73A
:101F28000FB5FFF7C9FF002848BF10F1000F0FBD1C
:101F38004DF808EDFFF7F4FF0CBF012000205DF815
:101F480008FB00BF4DF808EDFFF7EAFF34BF01209A
:101F580000205DF808FB00BF4DF808EDFFF7E0FF33
:101F680094BF012000205DF808FB00BF4DF808ED84
:101F7800FFF7D2FF94BF012000205DF808FB00BFE7
:101F88004DF808EDFFF7C8FF34BF012000205DF8C9
:101F980008FB00BF4FEA4002B2F1FE4F0FD34FF0EB
:101FA8009E03B3EB12620DD94FEA002343F00043BE
:101FB80010F0004F23FA02F018BF404270474FF06C
:101FC8000000704712F1610F01D1420205D110F0F3
:101FD800004008BF6FF0004070474FF000007047A6
:101FE80082B0084B1B68084AA2FB03235B0A00FB6C
:101FF80003F0019000BF019B5A1E0192002BF9D1FA
:1020080002B0704764000020D34D621070B582B0F2
:102018000446036813F0010F2CD0AB4B5B6803F048
:102028000C03042B1DD0A84B5B6803F00C03082B92
:1020380012D06368B3F5803F41D0002B55D103F12E
:10204800804303F504331A6822F480321A601A6850
:1020580022F480221A6037E09B4B5B6813F4803FC0
:10206800E7D0994B1B6813F4003F03D06368002B3B
:1020780000F0AE81236813F0020F76D0924B5B68B4
:1020880013F00C0F5FD0904B5B6803F00C03082B28
:1020980054D02369002B00F08A808C4B01221A60EF
:1020A80000F0F8FF0546884B1B6813F0020F75D146
:1020B80000F0F0FF401B0228F5D903208BE1824A8B
:1020C800136843F480331360636843B300F0E2FF9E
:1020D80005467D4B1B6813F4003FCBD100F0DAFFB7
:1020E800401B6428F5D9032075E1B3F5A02F09D06A
:1020F800754B1A6822F480321A601A6822F480221A
:102108001A60E1E703F18043A3F53C331A6842F40F
:1021180080221A601A6842F480321A60D4E700F00C
:10212800B9FF0546684B1B6813F4003FA2D000F0C6
:10213800B1FF401B6428F5D903204CE1624B5B6872
:1021480013F4803FA5D1604B1B6813F0020F04D035
:102158002369012B01D001203DE15B4A136823F07C
:10216800F803616943EAC1031360236813F0080F99
:1021780032D0A369002B5BD0554B01221A6000F0C6
:1021880089FF0546504B5B6A13F0020F21D100F01E
:1021980081FF401B0228F5D903201CE14A4A136835
:1021A80023F0F803616943EAC1031360DDE7474B95
:1021B80000221A6000F06EFF0546434B1B6813F0BF
:1021C800020FD2D000F066FF401B0228F5D9032089
:1021D80001E10120FFF704FF236813F0040F00F06A
:1021E8009780394BDB6913F0805F33D1364BDA695E
:1021F80042F08052DA61DB6903F080530193019B5E
:102208000125344B1B6813F4807F25D0E368012B2C
:1022180036D0002B4CD103F1804303F504331A6AFE
:1022280022F001021A621A6A22F004021A622CE0F1
:10223800274B00221A6000F02DFF0546224B5B6AEF
:1022480013F0020FC8D000F025FF401B0228F5D973
:102258000320C0E00025D4E71E4A136843F48073C6
:10226800136000F017FF06461A4B1B6813F4807FB3
:10227800CCD100F00FFF801B6428F5D90320AAE019
:10228800114A136A43F001031362E36873B300F061
:1022980001FF06460C4B1B6A13F0020F37D100F002
:1022A800F9FE801B41F288339842F3D9032092E06B
:1022B800052B11D0044B1A6A22F001021A621A6A1D
:1022C80022F004021A62E0E70010024000004242D5
:1022D8008004424200700040414B1A6A42F00402F6
:1022E8001A621A6A42F001021A62CEE700F0D2FEC0
:1022F80006463B4B1B6A13F0020F08D000F0CAFEDB
:10230800801B41F288339842F3D9032063E0E5B992
:10231800E369002B5ED0324A526802F00C02082AA8
:102328005BD0022B17D02F4B00221A6000F0B2FEB0
:1023380004462B4B1B6813F0007F47D000F0AAFE21
:10234800001B0228F5D9032045E0254AD36923F06C
:102358008053D361DCE7234B00221A6000F09AFE19
:1023680005461F4B1B6813F0007F06D000F092FE55
:10237800401B0228F5D903202DE0236AB3F5803FDE
:102388001AD017494B6823F47413226A606A02430F
:1023980013434B60134B01221A6000F07BFE044686
:1023A8000F4B1B6813F0007F0ED100F073FE001B6B
:1023B8000228F5D903200EE0094A536823F40033B4
:1023C800A1680B435360DCE7002004E0002002E032
:1023D800012000E0002002B070BD0120FBE700BF33
:1023E800001002406000424210B487B0164C94E8D6
:1023F8000F000DF1180C0CE90F00238AADF804301A
:10240800124B5B6803F00C02082A1AD1C3F383420B
:10241800624412F8100C13F4803F05D10C4B03FBF7
:1024280000F007B010BC7047084B5B68C3F340432B
:10243800634413F8142C074BB3FBF2F300FB03F0CF
:10244800EFE70448EDE700BFD84D00080010024050
:1024580000093D0000127A00594B1B6803F007037E
:102468008B420CD2564A136823F007030B431360C0
:10247800136803F007038B4201D00120704770B541
:10248800036813F0020F06D04E4A536823F0F00396
:102498008468234353600C460546036813F0010F14
:1024A80052D04368012B23D0022B28D0454A12680A
:1024B80012F0020F00F0828042494A6822F00302BB
:1024C80013434B6000F0E6FD06466B68012B1DD0F8
:1024D800022B2AD03B4B5B6813F00C0F34D000F072
:1024E800D9FD801B41F288339842F3D9032064E078
:1024F800344A126812F4003FDED101205DE0314A0F
:10250800126812F0007FD7D1012056E02D4B5B688E
:1025180003F00C03042B17D000F0BCFD801B41F224
:1025280088339842F2D9032047E0264B5B6803F0D2
:102538000C03082B08D000F0ADFD801B41F2883356
:102548009842F2D9032038E01D4B1B6803F00703BB
:10255800A3420CD91A4A136823F0070323431360D4
:10256800136803F00703A34201D0012025E02B687C
:1025780013F0040F06D0134A536823F4E063E968A4
:102588000B4353602B6813F0080F07D00D4A5368AC
:1025980023F46053296943EAC1035360FFF724FF1A
:1025A800084B5B68C3F30313074AD35CD840074B57
:1025B8001860002000F03EFD002070BD0120FCE7FF
:1025C8000020024000100240EC4D0008640000208A
:1025D800014B1868704700BF6400002008B5FFF77A
:1025E800F7FF044B5B68C3F30223034AD35CD8406C
:1025F80008BD00BF00100240FC4D000808B5FFF7F9
:10260800E7FF044B5B68C3F3C223034AD35CD8409B
:1026180008BD00BF00100240FC4D000830B4036A3A
:1026280023F001030362056A4268846924F0730495
:102638000B681C4325F002058B682B43104DA842FC
:1026480003D005F50065A84205D123F00803CD683D
:102658002B4323F004030A4DA84203D005F5006577
:10266800A84205D122F440724D6915438A692A436C
:10267800426084614A684263036230BC704700BFAD
:10268800002C014030B4036A23F480730362036AA8
:102698004268C46924F073040D682C4323F4007362
:1026A8008D6843EA0523124DA84203D005F500655D
:1026B800A84206D123F40063CD6843EA052323F436
:1026C80080630B4DA84203D005F50065A84207D1E9
:1026D80022F440524D6942EA05128D6942EA051218
:1026E8004260C4614A68C263036230BC704700BF7D
:1026F800002C014030B4036A23F480530362036A58
:102708004468C26922F4E6420D6842EA052223F4CD
:1027180000538D6843EA0533094DA84203D005F5F7
:102728000065A84204D124F480444D6944EA851424
:102738004460C2614A680264036230BC704700BFEB
:10274800002C014010B4036A046A24F001040462F6
:10275800846924F0F00444EA021223F00A030B43CC
:102768008261036210BC704710B4036A23F010033F
:1027780003628469036A24F4704444EA023223F051
:10278800A00343EA01138261036210BC704710B4CE
:10279800846824F47F4442EA03230B432343836081
:1027A80010BC704710B50468A26822F070024B682C
:1027B800134323F007030A681343A3604B68502BA5
:1027C8001ED00AD9602B21D0702B05D10B698A68DD
:1027D800C9680068FFF7DBFF10BD402BFCD1036818
:1027E8001C6A1A6A22F001021A620268936923F0CD
:1027F800F003096943EA0113936103681C62EBE77C
:102808000A6989680068FFF79DFFE5E70A69896832
:102818000068FFF7A9FFDFE7704738B590F83C304C
:10282800012B18D00446012580F83C50022380F87B
:102838003D30FFF7B7FF2268D36823F04003D36029
:102848002268D36823F48043D36084F83D50002085
:1028580084F83C0038BD0220FCE700000368244AE5
:10286800904212D002F5006290420ED0B0F1804F33
:102878000BD0A2F59832904207D002F580629042C0
:1028880003D002F58062904203D123F070034A68B6
:102898001343174A904212D002F5006290420ED0BC
:1028A800B0F1804F0BD0A2F59832904207D002F5D4
:1028B8008062904203D002F58062904203D123F4F3
:1028C8004073CA68134323F080034A6913430360C3
:1028D8008B68C3620B688362054B984203D003F58B
:1028E8000063984201D10B69036301234361704778
:1028F800002C0140A8B110B5044690F83D305BB1FA
:10290800022384F83D30211D2068FFF7A7FF01232B
:1029180084F83D30002010BD80F83C30FFF77CFF84
:10292800EEE701207047000030B4036A23F010037B
:102938000362036A4468826922F4E6420D6842EA47
:10294800052223F020038D6843EA0513114DA842A0
:1029580003D005F50065A84206D123F08003CD68B1
:1029680043EA051323F040030A4DA84203D005F5B6
:102978000065A84207D124F440644D6944EA8504FF
:102988008D6944EA8504446082614A68826303620F
:1029980030BC7047002C014038B590F83C30012B12
:1029A80066D00D460446012380F83C30022380F8A7
:1029B8003D300C2A1AD8DFE802F007191919201936
:1029C80019193419191947000068FFF727FE2268FA
:1029D800936943F0080393612268936923F0040321
:1029E80093612268936929690B439361012384F8F1
:1029F8003D30002084F83C0038BD0068FFF794FFA4
:102A08002268936943F4006393612268936923F40D
:102A18008063936122689369296943EA012393617A
:102A2800E4E70068FFF72EFE2268D36943F0080345
:102A3800D3612268D36923F00403D3612268D36980
:102A480029690B43D361D1E70068FFF753FE226879
:102A5800D36943F40063D3612268D36923F48063A4
:102A6800D3612268D369296943EA0123D361BDE7A9
:102A78000220C1E710B4012303FA01F4036A23EA30
:102A880004030362036A8A401343036210BC70475D
:102A980010B5044601220068FFF7ECFF2368094AD5
:102AA800934203D002F50062934203D15A6C42F478
:102AB80000425A642268136843F00103136000203F
:102AC80010BD00BF002C014010B4042303FA01F428
:102AD800036A23EA04030362036A8A401343036216
:102AE80010BC704710B5044604220068FFF7ECFFDD
:102AF8002268536C43F4004353642268136843F01C
:102B080001031360002010BD90F83C30012B25D044
:102B1800012380F83C30CB6823F440738A68134360
:102B280023F480634A68134323F400630A68134359
:102B380023F480530A69134323F400534A69134367
:102B480023F480438A69134323F400431343026840
:102B58005364002380F83C301846704702207047C1
:102B680090F83C30012B22D030B4012280F83C2070
:102B7800022380F83D300468636823F070036360C3
:102B8800046863680D682B4363600468A36823F0D6
:102B98008003A3600468A36849680B43A36080F8B6
:102BA8003D20002380F83C30184630BC7047022096
:102BB80070470000034690F82420012A20D0012203
:102BC80080F824200268906810F0010F07D10D48A2
:102BD800806810F0010F02D10B48824208D09A6A2F
:102BE80042F020029A620120002283F824207047D4
:102BF800506820F470200968014351600020F3E711
:102C0800022070470028014000240140074AD36889
:102C180023F4E0631B041B0C000200F4E06018437B
:102C280040F0BF6040F40030D060704700ED00E035
:102C380030B4174BDB68C3F30223C3F10704042C39
:102C480028BF04241D1D062D18D9033B4FF0FF355E
:102C580005FA04F421EA0401994005FA03F322EA8B
:102C68000303194300280BDB0901C9B200F16040D6
:102C780000F5614080F8001330BC70470023E5E799
:102C880000F00F000901C9B2024B1954F4E700BF64
:102C980000ED00E014ED00E000F01F024009012300
:102CA8009340024A42F82030704700BF00E100E03C
:102CB8000138B0F1807F0AD2064B5860064AF021ED
:102CC80082F823100020986007221A6070470120BC
:102CD800704700BF10E000E000ED00E0042805D0D8
:102CE800054A136823F0040313607047024A136807
:102CF80043F004031360704710E000E0704708B524
:102D0800FFF7FCFF08BD0000F0B482B0002635468E
:102D1800ABE0002C63D0012C00D1CE68FF2B72D819
:102D28008446FF2B72D8AC00DCF800200F27A740A0
:102D380022EA070206FA04F42243CCF800204A6883
:102D480012F0805F00F09080654A946944F00104B5
:102D58009461926902F001020192019AAC08A71CE1
:102D6800604A52F827C005F0030297000F22BA40C4
:102D78002CEA020C5C4A90424ED002F580629042E6
:102D880000F08B8002F58062904200F0888002F5A6
:102D98008062904200F0858002F58062904200F0E7
:102DA800828002F58062904234D0062235E04F4F8F
:102DB800BC4214D00BD94E4FBC4210D007F5803717
:102DC800BC420CD0A7F58017BC42A7D107E0A7F5F5
:102DD8008017BC4203D007F58037BC429ED18C686F
:102DE8007CB1012C08D04261082697E7CE680836E6
:102DF80094E7CE680C3691E7026108268EE7002634
:102E08008CE704268AE700F1040C8AE7A5F1080498
:102E1800A40089E7052200E00022BA4042EA0C0239
:102E28000234304F47F824204A6812F4803F3CD0DF
:102E3800304C22681A4322604A6812F4003F3AD0A4
:102E48002C4C62681A4362604A6812F4801F38D0BA
:102E5800284CA2681A43A2604A6812F4001F36D0B0
:102E6800244CE2681343E36001350F2D35D8012265
:102E7800AA400B6813409A42F6D14C68122CB8D07D
:102E880095D8022CB2D07FF644AF032CB7D0112CC2
:102E98007FF444AFCE68043640E70122BDE7022242
:102EA800BBE70322B9E70422B7E7124C226822EAFB
:102EB80003022260C0E70F4C626822EA03026260E4
:102EC800C2E70C4CA26822EA0302A260C4E7094CDC
:102ED800E26822EA0303E360C6E702B0F0BC704789
:102EE80000100240000001400008014000002110CD
:102EF80000003110000401408368194201D100200C
:102F080070470120704712B90904016170470161D7
:102F18007047C3685940C1607047000070B582B0FF
:102F28000446036813F0010F34D03E4BDB6913F0FD
:102F3800805F48D13B4BDA6942F08052DA61DB6945
:102F480003F080530193019B0125374B1B6813F451
:102F5800807F3AD0334B1B6A13F4407311D06268F8
:102F680002F440729A420CD02E4A136A23F440703D
:102F78002E4901260E6000260E60106213F0010F24
:102F880037D1284A136A23F4407361680B431362EC
:102F9800002D3FD1236813F0020F06D0214A536851
:102FA80023F44043A1680B435360236813F0100FC8
:102FB80035D01C4A536823F4800361690B4353607E
:102FC800002002B070BD0025BFE7174A136843F41C
:102FD8008073136000F05EF80646134B1B6813F409
:102FE800807FB7D100F056F8801B6428F5D90320FC
:102FF800E7E700F04FF806460A4B1B6A13F0020F8A
:10300800BFD100F047F8801B41F288339842F3D9CA
:103018000320D6E7D36923F08053D361BAE70020B1
:10302800CFE700BF00100240007000404004424259
:103038007047000010B50446074B1868074BA3FB00
:1030480000308009FFF734FE002221464FF0FF30A0
:10305800FFF7EEFD002010BD64000020D34D621084
:1030680008B5074A136843F0100313600320FFF7FD
:10307800CDFD0020FFF7DEFFFFF7DAFF002008BDD7
:1030880000200240024A136801331360704700BFF2
:10309800E4000020014B1868704700BFE4000020DE
:1030A80030B583B00190FFF7F5FF0546019CB4F1F8
:1030B800FF3F00D00134FFF7EDFF401BA042FAD3D9
:1030C80003B030BD7047000030B482B000230193D4
:1030D80090F82430012B00F08B800246012380F801
:1030E80024304B68062B29D80568686B03EB8303EB
:1030F800053B1F249C4020EA04000C6804FA03F3F3
:1031080003436B630B68092B38D91568E86803EB30
:1031180043031E3B07249C4020EA04008C6804FA01
:1031280003F30343EB600B68103B012B34D90020F9
:10313800002382F8243002B030BC70470C2B0ED824
:103148000568286B03EB8303233B1F249C4020EA7C
:1031580004000C6804FA03F303432B63D2E7056801
:10316800E86A03EB8303413B1F249C4020EA0400E8
:103178000C6804FA03F30343EB62C3E71568286994
:1031880003EB430307249C4020EA04008C6804FAFC
:1031980003F303432B61C6E713681648834205D03F
:1031A800936A43F0200393620120C1E7986810F402
:1031B800000F1BD1986840F4000098600B68102B32
:1031C80001D00020B4E70C4B1B680C49A1FB03138A
:1031D8009B0C03EB83035900019102E0019B013B27
:1031E8000193019B002BF9D10020A1E700209FE764
:1031F8000220A0E7002401406400002083DE1B4376
:1032080030B583B00023019303689A6812F0010F68
:103218002ED19A6842F001029A60174B1B68174A30
:10322800A2FB03239B0C019302E0019B013B01934A
:10323800019B002BF9D10446FFF72CFF05462368B4
:103248009B6813F0010F11D1FFF724FF401B0228E0
:10325800F5D9A36A43F01003A362E36A43F00103BC
:10326800E362002384F82430012002E0002000E01B
:10327800002003B030BD00BF6400002083DE1B4384
:1032880090F82430012B6AD010B50446012380F849
:103298002430FFF7B5FF024600285BD1A36A23F468
:1032A800407323F0010343F48073A36223682D491C
:1032B8008B4227D0A16A21F48011A162596811F4C8
:1032C800806F05D0A16A21F4405141F48051A16278
:1032D800A16A11F4805F2BD0E16A21F00601E16256
:1032E800002184F824106FF002011960236899689E
:1032F80001F46021B1F5602F1DD0996841F4801167
:1033080099602AE0A1F58061496811F4702FD1D045
:10331800A16A41F48011A1621349496811F4806FD0
:10332800D6D0A16A21F4405141F48051A162CFE77F
:103338000021E162D4E70B498B4204D0996841F43B
:10334800A001996009E0A1F58061496811F4702F26
:10335800D3D1F3E7002384F82430104610BD0222AD
:1033680010467047002801400024014038B5036822
:103378009A6812F0010F01D1002038BD04469A68FE
:1033880022F001029A60FFF785FE054623689B68D4
:1033980013F0010F0ED0FFF77DFE401B0228F5D970
:1033A800A36A43F01003A362E36A43F00103E362F4
:1033B8000120E2E70020E0E7002800F08A8070B5ED
:1033C8000446836A002B36D02046FFF7CFFFA36A56
:1033D80013F0100377D1002875D1A26A22F488521D
:1033E80022F0020242F00202A262626825683A49AB
:1033F8008D4226D0E1690A43E66842EA4602A1689E
:10340800B1F5807F27D0012922D06169012925D013
:10341800696821F469410B436B6021688D682F4B03
:103428002B4013438B60A368B3F5807F27D0012B13
:1034380025D0002126E0C36280F82430FFF742FE41
:10344800C2E7E169B1F5402FD5D14FF40021D2E7A9
:103458004FF48073D9E74FF48073D6E736B9A16982
:10346800013943EA413343F40063D1E7A16A41F0EB
:103478002001A162E16A41F00101E162C8E7236924
:10348800013B19052568EB6A23F470030B43EB62D3
:1034980023689968124B0B409A420BD0A36A23F019
:1034A800120343F01003A362E36A43F00103E362EB
:1034B80001200DE00023E362A36A23F0030343F035
:1034C8000103A36204E0A36A43F01003A36201208E
:1034D80070BD0120704700BF003C0140FDF7E1FFCF
:1034E800FE0E1FFF0268D36823F0C003D3602023B9
:1034F80080F8393070470268D36823F49073D3603A
:103508000268536923F001035361202380F83A309D
:10351800704700002DE9F84305460268136923F453
:103528004053C1680B4313618368026913434269BE
:1035380013430168CA6822F4B05222F00C02134304
:10354800CB600268536923F4407381690B4353616C
:103558000268594B9A4257D0FFF740F800EB8000B9
:1035680000EB80006C68A400B0FBF4F4534FA7FB99
:10357800043464092601FFF731F800EB800000EB02
:1035880080006C68A400B0FBF4F9FFF727F800EBA3
:10359800800000EB80006C68A400B0FBF4F4A7FB8B
:1035A800043464094FF0640808FB1494240132348D
:1035B800A7FB0434640904F0F0043444FFF70EF860
:1035C80000EB800000EB80006E68B600B0FBF6F6FA
:1035D800FFF704F800EB800000EB80006B689B00AD
:1035E800B0FBF3F0A7FB0030400908FB10684FEA76
:1035F800081808F13208A7FB0837C7F343172B68E8
:1036080027449F60BDE8F883FEF7F8FF00EB8000D1
:1036180000EB80006C68A400B0FBF4F4274FA7FB14
:10362800043464092601FEF7E9FF00EB800000EB93
:1036380080006C68A400B0FBF4F9FEF7DFFF00EB34
:10364800800000EB80006C68A400B0FBF4F4A7FBDA
:10365800043464094FF0640808FB149424013234DC
:10366800A7FB0434640904F0F0043444FEF7C6FFF1
:1036780000EB800000EB80006E68B600B0FBF6F649
:10368800FEF7BCFF00EB800000EB80006B689B003E
:10369800B0FBF3F0A7FB0030400908FB10684FEAC5
:1036A800081808F13208A7FB0837C7F343172B6837
:1036B80027449F60A6E700BF003801401F85EB51F3
:1036C800704758B310B5044690F839300BB324232B
:1036D80084F839302268D36823F40053D360204635
:1036E800FFF718FF2268136923F4904313612268D7
:1036F800536923F02A0353612268D36843F40053C3
:10370800D3600020E063202384F8393084F83A300D
:1037180010BD80F83830FFF7D3FFD8E70120704795
:1037280038B590F83940E4B2202C31D1002931D095
:10373800002A31D090F83830012B2FD01346044698
:10374800012280F8382001628384C3840025C56380
:10375800212280F83920026B11489062226B1148AF
:10376800D062226B10481063226B556322680432C2
:10377800206B00F07DF823686FF040021A6084F82F
:1037880038502268536943F080035361284600E0AB
:10379800022038BD0120FCE70120FAE70220F8E703
:1037A800B7370008E9370008F5370008704708B54B
:1037B800436A0268126812F0200F0CD10022DA84E2
:1037C80019684A6922F080024A611A68D36843F08E
:1037D8004003D36008BD1846FFF7E8FFFAE77047D3
:1037E80008B5406AFFF7FBFF08BD704710B5446A8B
:1037F80023685A6994F83930DBB2212B10D023683A
:103808005A6902F0400294F83A30DBB2222B11D008
:10381800E36B43F01003E3632046FFF7E6FF10BDB8
:1038280002F08002002AEAD00023E3842046FFF752
:1038380059FEE4E7002AEBD00023E3852046FFF792
:103848005AFEE5E770B4066CC56B0124B4406C60A1
:10385800046863604368102B05D0036899600368A7
:10386800DA6070BC704703689A600368D960F8E74B
:1038780038B590F82040012C32D0012480F820403F
:1038880090F82140012C04D0002380F82030022039
:1038980038BD0446022084F821000020A063256872
:1038A800286820F0010028602046FFF7CBFFE36A74
:1038B8005BB12268136843F00E0313602268136833
:1038C80043F0010313600020E2E72268136823F045
:1038D800040313602268136843F00A031360EDE7DA
:1038E8000220D5E70F4B1A6842F001021A605968A6
:1038F8000D4A0A405A601A6822F0847222F4803213
:103908001A601A6822F480221A605A6822F4FE02A9
:103918005A604FF41F029A60044B4FF000629A609D
:10392800704700BF001002400000FFF800ED00E003
:1039380030B597B01F4BDA6942F40032DA61DA69C0
:1039480002F400320092009A5A6942F001025A6168
:103958005B6903F001030193019B174D06954FF432
:10396800E13307930024089409940A9408230B93DD
:103978000C940D9406A8FFF7A4FE6B6943F080032E
:103988006B6104230293012304930223039303230B
:10399800059302A90948FFF7B7F9094B1C60094AC2
:1039A8009A605C6090221A60803B4FF0E0625A6037
:1039B80017B030BD0010024000440040000801402C
:1039C80080000240044400402DE9F04F89B07C4B50
:1039D8009A6942F004029A619A6902F0040201921B
:1039E800019A9A6942F008029A619A6902F00802FB
:1039F8000292029A9A6942F010029A619B6903F056
:103A080010030393039B0023059306934FF00208CA
:103A1800CDF81C8008AC202344F8103D21466948A5
:103A2800FFF772F94023049321466648FFF76CF9C3
:103A38004FF0800ACDF810A021466248FFF764F9DC
:103A48004FF48065049521465F48FFF75DF94FF410
:103A58000066049621465C48FFF756F94FF48053F8
:103A6800049321465848FFF74FF9049621465748D2
:103A7800FFF74AF9CDF8108021465448FFF744F97A
:103A88004FF00109CDF814900423049321464D48C2
:103A9800FFF73AF94FF40056049621464A48FFF7D3
:103AA80033F94FF40047049721464748FFF72CF9AC
:103AB80003230593CDF8109021464348FFF724F9D6
:103AC800CDF8109021464148FFF71EF94FF0080B3A
:103AD800CDF810B021463C48FFF716F9CDF8108014
:103AE80021463948FFF710F9102304932146364838
:103AF800FFF70AF92023049321463348FFF704F916
:103B0800CDF8108021463148FFF7FEF8CDF810B007
:103B180021462E48FFF7F8F80423049321462B4842
:103B2800FFF7F2F8CDF81480402304932146264885
:103B3800FFF7EAF8CDF810A021462348FFF7E4F88C
:103B48004FF4807BCDF810B021461F48FFF7DCF812
:103B5800CDF810A021461D48FFF7D6F8CDF81090F3
:103B680021461848FFF7D0F8CDF8108021461548AF
:103B7800FFF7CAF8CDF810B021461448FFF7C4F88B
:103B88004FF40073049321461048FFF7BDF80495DD
:103B980021460E48FFF7B8F8049621460948FFF772
:103BA800B3F84FF48043049321460648FFF7ACF876
:103BB800049721460348FFF7A7F809B0BDE8F08F3E
:103BC80000100240000C01400010014000080140B4
:103BD8002DE9F04F99B0754B9A6942F400629A61E9
:103BE8009A6902F400620192019A9A6942F40052B9
:103BF8009A619B6903F400530293029B6C4EDFF8B1
:103C0800B891C6F80090002474604FF02008C6F8F8
:103C180008804FF4FA6BC6F80CB034617461B46173
:103C28003046FEF767FE10231693179416A9304600
:103C3800FEF796FF60230F931094119408271297AC
:103C4800139414944FF40073159322460FA9304629
:103C5800FEF7A2FE04220FA93046FEF79DFE3A4663
:103C68000FA93046FEF798FE4FF4006308934FF40F
:103C7800806309930A94CDF82C800C940D940E94CB
:103C88000DEB08013046FEF73FFF4A4DDFF82CA147
:103C9800C5F800A06C60C5F80880C5F80CB02C61A8
:103CA8006C61AC612846FEF725FECDF8588080236C
:103CB800179316A92846FEF753FF049418A905235D
:103CC80041F8543D2846FEF7A8FD60230F93109451
:103CD80011941297139414944FF400731593224679
:103CE8000FA92846FEF758FE04220FA92846FEF71A
:103CF80053FE3A460FA92846FEF74EFE4FF40063DE
:103D080008934FF4806309930A94CDF82C800C949F
:103D18000D940E940DEB08012846FEF7F5FEDAF82F
:103D2800443023F40043CAF84430D9F8443023F42B
:103D38000043C9F8443021462846FEF7A9FE04216D
:103D48002846FEF7A5FE39462846FEF7A1FE21467D
:103D58002846FEF7C7FE04212846FEF7C3FE39466B
:103D68002846FEF7BFFE21463046FEF791FE0421A5
:103D78003046FEF78DFE39463046FEF789FE21466D
:103D88003046FEF7AFFE04213046FEF7ABFE39465B
:103D98003046FEF7A7FE2B6801221A6332681368C3
:103DA80043F00103136019B0BDE8F08F0010024022
:103DB800B001002040030020002C014000340140E5
:103DC8002DE9F04186B0424EB36943F40073B36104
:103DD800B36903F400730093009B3E4C3E4B236091
:103DE8004FF48073A3600025E56065614FF44023BC
:103DF800E36165604FF00508C4F810802046FFF7BE
:103E0800DBFA364A536843F48023536006A94FF41B
:103E1800C02341F8043D2046FEF7CCFE012304935D
:103E28000E220292039302A92046FFF74DF902954C
:103E38000227039702A92046FFF746F904970B27A4
:103E480002970323039302A92046FFF73DF90C23A9
:103E580002930423039302A92046FFF735F90723A9
:103E6800049310230293CDF80C8002A92046FFF793
:103E78002BF92268936843F4000343F4807393603A
:103E8800936843F001039360736943F0010373611E
:103E9800736903F001030193019B114B1D60C3F883
:103EA8000480104A9A60104ADA6040F6A2221A602A
:103EB8001A6842F001021A602A4629463846FEF777
:103EC800B7FE3846FEF7E8FE06B0BDE8F08100BF51
:103ED8000010024078020020002401400000014048
:103EE800080002404C240140EC020020F0B585B0E7
:103EF800284B9A6942F480629A619B6903F4806353
:103F08000093009B244C254B23604FF48073A360DF
:103F18000023E36063614FF46022E2616360052679
:103F280026612046FFF748FA012303930F220192E6
:103F3800029301A92046FFF7C7F80D230193022534
:103F4800029501A92046FFF7BFF803950A230193BC
:103F58000327029701A92046FFF7B6F80195042325
:103F680002930DEB03012046FFF7AEF807230393F6
:103F78000197029601A92046FFF7A6F823689A68D8
:103F880042F480729A609A6842F001029A6005B021
:103F9800F0BD00BF001002402C01002000280140A5
:103FA80010B50024094B1C70094B1C7005E0094B27
:103FB8001C706420FFF774F80134072CF7DD002229
:103FC8004FF400410448FEF79EFFFEE7B8000020CA
:103FD800C4000020B40000200010014030B597B0A4
:103FE80002250C9501231093102311931395002497
:103FF80014944FF4601315930CA8FEF707F80F23D9
:104008000793089509944FF480630A930B94294603
:1040180007A8FEF721FA01954FF44043039301A83E
:10402800FEF77CFFFEF7D4FA084BA3FB00308009AB
:10403800FEF73EFE0420FEF751FE224621464FF0D1
:10404800FF30FEF7F5FD17B030BD00BFD34D62104D
:104058002DE9F04F85B0FFF703F8AD4CA36943F0A5
:104068000103A361A36903F001030393039B0320E6
:10407800FEF7CCFD002211466FF00B00FEF7D8FDCD
:10408800002211466FF00A00FEF7D2FD0022114609
:104098006FF00900FEF7CCFD002211466FF0040016
:1040A800FEF7C6FD002211466FF00300FEF7C0FDC3
:1040B800002211466FF00100FEF7BAFD00221146FA
:1040C8004FF0FF30FEF7B4FDFFF788FF636923F078
:1040D80001036361FFF778FCFFF77AFDFFF770FED5
:1040E800FFF704FFFFF724FC8A4800F025FE0122B1
:1040F8004FF400418848FEF706FF8848FFF7C0F8EC
:104108008748FFF7BDF8082405E0864B1C7064203B
:10411800FEF7C6FF013C002CF7DA4FF0000A814B8E
:1041280083F800A0012204217F48FEF7ECFE7F4BB4
:10413800188AFDF711FD01907D4B01221A70D346B4
:104148004CE17C490A6801320A6053E14FF47A78FD
:1041580032463B4620462946FCF780FF04460D467A
:104168000022754BFDF7C0FB88B963A3D3E9002390
:1041780020462946FDF79AFB00285CD120462946AF
:10418800FDF7BCFB044604E0DFF8E481E0E74FF408
:104198007A740AF13203A34214DDAAF1320AA24565
:1041A80010DA0BF1320343450CDDABF1320BC3459A
:1041B80008DA624B1B68042B04D8614BC3F80080F3
:1041C800604B1C60604B1A68604BA3FB0213DB0852
:1041D80003EB830303EB83039A422ED002215C484E
:1041E800FEF78AFE30B15B4B1B681BB95A4B1B6844
:1041F800002B73D0594B1D6859492846FDF7A2FE7C
:1042080020B1584B1B681333262B72D956492846C0
:10421800FDF798FE002800F0B58051492846FDF7C3
:10422800AFFE002800F0AE803E4B05221A704F4BBF
:1042380006221A70B2E04E4CABE70198FDF76CF815
:104248002FA3D3E90023FDF7BFF806460F46374DE5
:10425800288AFDF781FCFDF75FF82BA3D3E900233B
:10426800FDF7B2F802460B4630463946FCF7F6FE33
:10427800FDF76CFB074601903E49FDF7BBFB3E4945
:10428800FDF7C2FC3D49FDF7B7FB06464146022053
:1042980000F00CFD2146032000F008FDA989042048
:1042A80000F004FD36492D4B1868FDF7ADFCFDF70D
:1042B80071FE0146052000F0F9FC3846FDF76AFE5C
:1042C8000146062000F0F2FC3046FDF763FE014689
:1042D800072000F0EBFC00F0EFFC7FE7144B002216
:1042E8001A7002211A48FEF707FE0028F9D1FFF7D5
:1042F80057FEFFF755FE00BF0000000000408FC0CA
:10430800AE47E17A14AEEF3F7B14AE47E17A843FC3
:1043180000100240044E00080010014078020020FE
:104328002C010020B4000020000C0140EC02002009
:10433800C40000209403002000408F406800002043
:10434800D8000020D4000020800300201F85EB51F6
:1043580000080140E0000020DC0000207000002080
:10436800CCCC0642A003002000000C42B80000207C
:1043780018FCFFFF00E0CE44083748BE33330F4235
:104388000000C842684B1B6813F1320F80F2B180FD
:10439800664B05221A70664B01221A7084EAE47390
:1043A800A3EBE473322B06DC88EAE873A3EBE8732B
:1043B800322B40F3A4805F4B00221A605D4B1A68D1
:1043C8005D4B9A4200F2A0805C4A13680133136087
:1043D8005B4A136801331360A246C3460520FEF703
:1043E8005FFE584B1B68012B3FF4ABAE56490A6879
:1043F800013A0A60544A176887EAE772A2EBE77243
:10440800B2F5FA7F02DD5B424E4A13604C4B002244
:104418001A60DFF84481D8F80000FCF76BFF3CA372
:10442800D3E90023FCF7D0FF04460D46474B186834
:10443800FCF760FF38A3D3E90023FCF7C5FF024669
:104448000B4620462946FCF709FEFDF757FA0646B3
:10445800C8F80000DFF8D080D8F80000FCF74AFF61
:104468002BA3D3E90023FCF7AFFF04460D463846DB
:10447800FCF740FF28A3D3E90023FCF7A5FF024679
:104488000B4620462946FCF7E9FDFDF737FAC8F840
:104498000000FCF72FFF00222D4BFCF795FF044688
:1044A8000D463046FCF726FF0022294BFCF78CFF0F
:1044B80006460F4602460B4620462946FCF7CCFD29
:1044C800804689460022234BFDF70EFA00287FF428
:1044D8003DAE13A3D3E9002340464946FDF7E6F96C
:1044E80000287FF451AE40464946FDF707FA80465A
:1044F8002EE600230D4A13700D4A13704EE70D4A3D
:1045080013680133136059E7FFF74AFDAFF30080E2
:10451800CDCCCCCCCCCCEC3F9A9999999999B93F10
:104528000000000000408FC0A0030020B40000205D
:10453800B800002084030020803801008003002098
:10454800680000206C00002094030020A8030020CD
:104558000000E03F00408F4098030020000000006A
:10456800774B02225A60774B1B68B3F57A7F5EDB84
:104578002DE9F041744B1A68744BA3FB02139B0995
:104588004FF47A7101FB13230BBB714C2068FCF7C5
:10459800C3FE65A3D3E90023FCF716FF06460F46C2
:1045A8006C4B9889FDF7D8FA6B49FDF72DFBFCF7A2
:1045B800B3FE5FA3D3E90023FCF706FF02460B46D0
:1045C80030463946FCF74AFDFDF7C0F92060614BDB
:1045D8005889624B1C68001BFCF78CFE56A3D3E974
:1045E8000023FCF7F1FE00220023FDF75FF9002805
:1045F80052D1584B5889001BFCF77CFE4EA3D3E9D7
:104608000023FCF7E1FE0022554BFDF76DF9002869
:1046180052D1544B1B68052B4ED8534B1B78002B9B
:104628004AD0524A536C43F40043536449E001337F
:10463800444A1360474A90884D490B68034403EB8A
:10464800D3735B100B60D0884A490B68034403EBB3
:10465800D3735B100B60108847490B68034403EB66
:10466800D3735B100B60508844490B68034403EB19
:10467800D3735B100B60508938490B68034403EB14
:10468800D3735B100B6011893D4A13680B4403EB2D
:10469800D3735B10136070472E4B5889001BFCF7CF
:1046A80029FE25A3D3E90023FCF78EFE0022354B13
:1046B800FDF7FCF80028ACD02C4A536C23F40043D7
:1046C8005364244B18892E4B1C68001BFCF712FE00
:1046D80019A3D3E90023FCF777FE00220023FDF796
:1046E800E5F8002852D11B4B1889001BFCF702FE85
:1046F80011A3D3E90023FCF767FE0022184BFDF74E
:10470800F3F8002852D1174B1B68052B4ED8164BCF
:104718001B78002B4AD01C4A536C43F40043536463
:1047280049E000BFAFF30080AE47E17A14AEEF3F37
:104738007B14AE47E17A843F7B14AE47E17A943F1D
:1047480000000240C8000020BC000020D34D6210C9
:1047580070000020EC020020EC4CC03C74000020EB
:1047680000002E4068000020C400002000340140F2
:104778007C000020800000208400002088000020A9
:104788007800002000002EC0002C0140924B1889B0
:10479800001BFCF7AFFD8EA3D3E90023FCF714FE42
:1047A80000228E4BFDF782F80028ACD08C4A536C5F
:1047B80023F4004353648B498B6813F0200F0CBF1C
:1047C800012300238A6812F0400F0CBF0122002247
:1047D800896811F0800F0CBF01250025824988687F
:1047E80010F4806F0CBF012000208C6814F4006F57
:1047F8000CBF01240024896811F4805F02EB450294
:1048080003EB4203794EF35C79490B600B6803F1C3
:1048180002030B600D68774B83FB0572A2EBE57210
:1048280002EB42024FEA4207A5EB07020A600CBFFF
:1048380002220022224400EB4202B05C6E4A106061
:10484800106802301060106883FB0043A3EBE0732C
:1048580003EB43035C00031B136009685E4883880D
:10486800664A12689A1AC388654800681B1A05299F
:1048780035D8DFE801F00324272A2D30D31A614AFE
:104888001360614A136801331360604A146854B3B3
:104898005F4AA2FB0312120B5E4909680131B2FBA1
:1048A800F1F001FB1022F2B9B3FBF4F204FB12336E
:1048B800FBB94FF400514C48FEF72BFB19E0514B64
:1048C8001A60DEE74F4B1A60DBE74E4A1360D8E701
:1048D8004C4A1360D5E79B1A4A4A1360D1E7494B03
:1048E80000221A60CDE700224FF400513E48FEF73F
:1048F8000AFB494BD3F800C03D4B1B68052B2BD84E
:10490800DFE803F00312171C2226CCF100006446EE
:104918009C46424B1968384B1B68052B52D8DFE878
:1049280003F01F3F43474B4E6446CCF1000C002078
:10493800EFE76046CCF1000C0024EAE7CCF1000474
:1049480060464FF0000CE4E7CCF100040020E0E7FB
:10495800CCF100000024DCE7002004468446D8E7B8
:104968004E420F4619462C4B1B68002B40F398808B
:104978002B4B1D681E4B1B6805331E4A82FB03E246
:10498800A2EBE37202EB42024FEA420EA3EB0E02E5
:10499800052A00F2B980DFE802F0456A6F74797E73
:1049A8000F4649420026DEE70E4649420027DAE76D
:1049B8004F420E460021D6E74F420026D3E74E422B
:1049C8000027D0E7002637463146CCE7AFF3008012
:1049D8007B14AE47E17A943FEC02002000002EC021
:1049E800002C0140000C014000100140104E00084E
:1049F800CC000020ABAAAA2AD00000207C0000200E
:104A080080000020C0000020BC000020B40000206E
:104A18005917B7D1B8000020D4000020D8000020D2
:104A2800DC000020C5F10008AE4615466544744414
:104A38004044964B1B68002B40F3D780944B1B686F
:104A4800944A126802F1050C934A82FB0CE2A2EB2D
:104A5800EC7202EB42024FEA420EACEB0E02052A60
:104A680000F2F980DFE802F058A8ADB2B7BCAE4654
:104A78006D424FF00008D9E7A8466D424FF0000E8E
:104A8800D4E7C5F1000EA8460025CFE7C5F1000E12
:104A98004FF00008CAE7C5F100084FF0000EC5E75F
:104AA8007E4B1D68C5F1000E7D4B1A6801327A4BAA
:104AB80083FB0283A3EBE27303EB43034FEA430850
:104AC800A2EB0803052B1AD8DFE803F00323060A34
:104AD8000E14A8461D46A9E7F0464FF0000EA5E7BC
:104AE800F046AE460025A1E72B4675469E464FF098
:104AF80000089BE7A84675464FF0000E96E74FF072
:104B08000008C646454691E74FF00008C6464546A8
:104B18008CE74FF0000889E7C3F100089E4613466A
:104B2800194407EB0E0206EB080305F57A7540F207
:104B3800C676B54200F397800A2DB8BF0A25594EAC
:104B4800756304F57A7440F2C675AC4200F38E8042
:104B58000A2CB8BF0A24534DAC6300F57A7040F2B2
:104B6800C674A04200F385800A28B8BF0A204D4CBD
:104B7800E06301F57A7140F2C67081427CDC0A2953
:104B8800B8BF0A214848416302F57A7240F2C671FB
:104B98008A4274DC0A2AB8BF0A2243498A6303F5A9
:104BA8007A7340F2C67293426CDC0A2BB8BF0A23B0
:104BB8003D4AD363BDE8F0819E465B424FF0000852
:104BC800AEE798465B424FF0000EA9E7C3F1000E2E
:104BD80098460023A4E7C3F1000E4FF000089FE7B2
:104BE800C3F100084FF0000E9AE7294B1B68C3F188
:104BF800000E284A12680132DFF89CC08CFB028C38
:104C0800ACEBE27C0CEB4C0C4FEA4C08A2EB080C2A
:104C1800BCF1050F1AD8DFE80CF00323060A0E14BE
:104C2800984663467CE7F0464FF0000E78E7F0467A
:104C38009E46002374E71A46734696464FF00008CE
:104C48006EE7984673464FF0000E69E74FF000088C
:104C5800C646434664E74FF00008C64643465FE74A
:104C68004FF000085CE740F2C67568E740F2C6748A
:104C780071E740F2C6707AE740F2C67182E740F207
:104C8800C6728AE740F2C67392E700BFD8000020D8
:104C9800E0000020D0000020ABAAAA2ADC000020F7
:104CA800CC00002000340140002C0140014B23F8C7
:104CB8001010704710040020F0B587B01A4F642216
:104CC80000213846FBF7F4FA18490A88B1F802C0FF
:104CD800888800B2CC8824B20D892DB24E8936B2AC
:104CE8008B891BB2C98909B2059104930396029571
:104CF800019400900FFA8CF312B20D493846FBF775
:104D08003FFB0C4B5B686BB90A4C236823F001032B
:104D180023603846FBF756FB6060E760236843F082
:104D28000103236007B0F0BDAC030020100400208D
:104D3800184E00088000024010B50446FBF742FBFD
:104D480082B221460148FEF7EBFC10BD00030020AB
:104D58007047FEE7FEE7FEE7FEE7704770477047DB
:104D680008B5FEF78FF9FDF7CAFF08BD002103E07B
:104D78000B4B5B58435004310A480B4B42189A427C
:104D8800F6D30A4A02E0002342F8043B084B9A4251
:104D9800F9D3FEF7A7FDFBF767FAFFF759F9704754
:104DA800884E0008000000208C0000208C000020A5
:104DB80024040020FEE70000F8B500BFF8BC08BCDA
:104DC8009E467047F8B500BFF8BC08BC9E467047C1
:104DD80002030405060708090A0B0C0D0E0F101034
:104DE80001020000000000000000000001020304AE
:104DF80006070809000000000102030453746172E9
:104E08007475702E2E2E00000000020104050300A8
:104E1800313A256920323A256920333A2569203408
:104E28003A256920353A256920363A256920373AE6
:104E3800256920383A25690D0A000000232D302BFA
:104E480020000000686C4C00656667454647000016
:104E580030313233343536373839414243444546A8
:104E6800000000003031323334353637383961626A
:084E78006364656600000000A0
:044E800051020008D3
:044E840029020008F7
:104E880004000020000000000000000000000000F6
:104E9800000000000000000000000000000000000A
:104EA80000000000000000000000000000000000FA
:104EB80000000000000000000000000000000000EA
:104EC80000000000000000000000000000000000DA
:104ED80000000000000000000000000000000000CA
:104EE8000000000000A24A04640000000100000065
:104EF80000002042D0070000D0070000D0070000C3
:0C4F0800D0070000D0070000D007000018
:0400000508004D752D
:00000001FF
